:020000040800F2
:1000000000000220A1040008E7040008E904000839
:10001000EB040008ED040008EF04000800000000F5
:10002000000000000000000000000000F1040008D3
:10003000F304000800000000F5040008F7040008BD
:10004000FB040008FD040008FF0400080105000887
:100050000305000805050008070500080905000854
:100060000B0500080D0500080F0500081105000824
:1000700013050008150500081705000819050008F4
:100080001B0500081D0500081F05000821050008C4
:100090002305000825050008270500082905000894
:1000A0002B0500082D0500082F0500083105000864
:1000B0003305000835050008370500083905000834
:1000C0003B0500083D0500083F0500084105000804
:1000D00043050008450500084705000849050008D4
:1000E0004B0500084D0500084F05000851050008A4
:1000F0005305000855050008570500085905000874
:100100005B0500085D0500085F0500086105000843
:100110006305000865050008670500086905000813
:100120006B0500086D0500086F05000871050008E3
:1001300073050008750500087705000879050008B3
:100140007B0500087D0500087F0500088105000883
:100150008305000885050008870500088905000853
:100160008B0500088D0500088F0500089105000823
:1001700093050008950500089705000899050008F3
:100180009B0500089D05000810B5054C237833B980
:10019000044B13B10448AFF300800123237010BD5A
:1001A000800000200000000050070008084B10B538
:1001B0001BB108490848AFF300800848036803B939
:1001C00010BD074B002BFBD0BDE81040184700BF07
:1001D000000000008400002050070008800000207C
:1001E00000000000154B002B08BF134B9D46A3F5E4
:1001F000803A00218B460F461348144A121A00F029
:100200008DFA0F4B002B00D098470E4B002B00D0DF
:1002100098470020002104000D000D48002802D05E
:100220000C48AFF3008000F053FA2000290000F0E2
:1002300003F900F039FA00BF0000080000000220B6
:10024000000000000000000080000020A00000204E
:10025000000000000000000008B56FF0040000F08E
:1002600077F8084B084A1B6808480949A2FB032392
:10027000C3F38753C3EB431203EB8202D200037034
:100280000A8008BD1400002083DE1B439C00002070
:100290009E0000200C4B0D4A1B88002100FB03F040
:1002A00050609160136843F00103136013680749BD
:1002B00003F00113012BF9D00B68002223F0010396
:1002C0000B608A60704700BF9E00002010E000E0D5
:1002D0002DE9F041104C82B004F1500801250027AF
:1002E0000226E068012100F099F8143434F80C3C3F
:1002F00054F8100C8DF8045069468DF806708DF88E
:1003000007508DF80560009300F02EF84445E8D1C1
:1003100002B0BDE8F08100BF00000020044B00EBFC
:10032000800003EB8000436802895A83704700BF56
:1003300000000020054B00EB800003EB80004268CA
:10034000018953694B405361704700BF0000002092
:10035000044A136804280CBF43F0040323F0040389
:100360001360704710E000E00022F0B5134601264C
:10037000032704E00133102B02F102022FD00D6895
:1003800006FA03F434EA0505F4D1D0F800E007FAE0
:1003900002F5ED430EEA050EC0F800E091F804E026
:1003A000D0F800C00EFA02FE4EEA0C0EC0F800E0D3
:1003B00091F804E00EF1FF3EBEF1010F07FA02FCD6
:1003C0000ED9C46824EA0C04C460CC79C568944092
:1003D00001332C43102BC46002F10202CFD1F0BDD7
:1003E000D0F808E005EA0E05856091F805E085681B
:1003F0000EFA02FE4EEA05058560456825EA04040A
:1004000044608C7945689C40A4B22C434460D8E792
:100410000369194214BF01200020704729B9054A19
:10042000136B23EA000010637047024B1A6B1043F2
:10043000186370470038024000B583B000F0B4F88C
:10044000FFF70AFFFFF744FF01210420FFF7E6FF53
:100450004FF400540022022369460F4800948DF89F
:1004600004208DF806208DF807308DF80530FFF751
:100470007BFF06E00020FFF751FF4FF4FA70FFF713
:1004800009FF4FF400510548FFF7C2FF0028F1D1E2
:10049000FFF750FFF1E700BF0000024000080240F4
:1004A0000649074A074B9A42BEBF51F8040B42F86F
:1004B000040BF8E704488047044800475C0700083D
:1004C0000000002080000020A9050008E5010008C8
:1004D0003349344A002301E041F8043B9142FBD305
:1004E000FFF7AAFFFEE7FEE7FEE7FEE7FEE7FEE70F
:1004F000FEE7FEE7FEE7FEE7FEE7FEE7FEE7FEE7D4
:10050000FEE7FEE7FEE7FEE7FEE7FEE7FEE7FEE7C3
:10051000FEE7FEE7FEE7FEE7FEE7FEE7FEE7FEE7B3
:10052000FEE7FEE7FEE7FEE7FEE7FEE7FEE7FEE7A3
:10053000FEE7FEE7FEE7FEE7FEE7FEE7FEE7FEE793
:10054000FEE7FEE7FEE7FEE7FEE7FEE7FEE7FEE783
:10055000FEE7FEE7FEE7FEE7FEE7FEE7FEE7FEE773
:10056000FEE7FEE7FEE7FEE7FEE7FEE7FEE7FEE763
:10057000FEE7FEE7FEE7FEE7FEE7FEE7FEE7FEE753
:10058000FEE7FEE7FEE7FEE7FEE7FEE7FEE7FEE743
:10059000FEE7FEE7FEE7FEE7FEE7FEE7FEE7000018
:1005A00080000020A000002039493A4BD1F8882073
:1005B000394842F47002C1F888201A68002142F0DC
:1005C00001021A6099601A6822F0847222F4803263
:1005D0001A6058601A6882B022F480221A60D960CA
:1005E000009101911A6842F480321A601A4603E0C1
:1005F000009BB3F5C06F09D0136803F40033019377
:10060000009B01330093019B002BF1D0214B1B6811
:1006100013F4003318BF01230193019B012B05D074
:100620001B4B4FF000629A6002B07047194B1B4998
:100630001A6C1B4842F080521A640A6842F48042E5
:100640000A609A689A609A6842F400429A609A68CE
:1006500042F4A0529A6058601A6842F080721A60A0
:100660001A4611680B4B8901FBD50E4A40F2057101
:1006700011609A6822F003029A609A6842F00202BE
:100680009A601A46936803F00C03082BFAD1C7E767
:1006900000ED00E0003802401030002400700040FF
:1006A00010544107003C024008B5074B044613B103
:1006B0000021AFF30080054B1868836A03B19847A7
:1006C000204600F033F800BF000000004C0700088F
:1006D00070B50E4B0E4CE41AA41000251E46A54220
:1006E00004D056F8253098470135F8E700F020F897
:1006F000084C094BE41AA41000251E46A54204D05C
:1007000056F8253098470135F8E770BD780000208D
:10071000780000207C00002078000020024403467E
:10072000934202D003F8011BFAE77047FEE700008E
:10073000F8B500BFF8BC08BC9E467047F8B500BFCE
:10074000F8BC08BC9E46704743000000180000201B
:0407500000000000A5
:0807540090FAFF7F0100000094
:10075C00000000000000024020000000010000002A
:10076C000000000000BD01050000000000000000BA
:10077C00000000000000000000000000000000006D
:10078C000000000000000000480700080000000006
:10079C00000000000000000000000000000000004D
:1007AC00000000000000000000000000000000003D
:1007BC00000000000000000000000000000000002D
:1007CC000000000000000000AD01000889010008D5
:0400000508000000EF
:00000001FF
